:100000000C946B010C949C010C949C010C949C012D
:100010000C949C010C949C010C949C010C949C01EC
:100020000C949C010C949C010C949C010C949C01DC
:100030000C949C010C949C010C949C010C949C01CC
:100040000C949C010C94FB070C949C010C949C0157
:100050000C949C010C949C010C949C010C94C7067C
:100060000C949C010C943B070C9411070C949C017C
:100070000C949C010C949C010C949C010C949C018C
:100080000C94CD070C949C010C949C010C949C0145
:100090000C949C010C949C010C949C010C949C016C
:1000A0000C949C010C949C010C949F070C949C0153
:1000B0000C949C010C949C010C949C010C94710771
:1000C0000C949C010C949C010C949C010C949C013C
:1000D0000C949C010C949C010C949C010C949C012C
:1000E0000C949C010C9471030C944A020C948502AC
:1000F0000C9456020C946D020C94BC040C94730B7B
:100100000C94CE0B0C94F60B0C94AB0B0C94E20BF2
:100110000C940C050C9495030C94A10B0C945205B3
:100120000C9477020C947B020C9463020C94EC0BFD
:100130000C94BF0B0C94990B0C9489020C943E0305
:100140000C9433020C9452020C947D0B0C946E0BA5
:100150000C94F8040C947F020C9438020C94000C5C
:100160000C9471020C94910B0C94D80B0C944E02CD
:100170000C9421030C945F020C949F050C9484034F
:100180000C9459020C949C030C94B50B0C945403DE
:100190000C9478030C94E9040C942D030C94290B13
:1001A0000C94870B0C946E080C9469020C946F03EA
:1001B0000C941A05000020002300260029002C00C2
:1001C0002F003200000100000301060109010000B8
:1001D0002100240027002A002D00300033000101F7
:1001E0000000040107010A01000022002500280088
:1001F0002B002E003100340002010000050108012F
:100200000B0105050505070508080808020202029A
:100210000A0A0808040404040101010101010101A2
:100220000303030303030303040707070C0C0C0C6D
:100230000C0C0C0C02020202060606060606060656
:100240000B0B0B0B0B0B0B0B0102102020080810E3
:100250002040102040800201020108040201010236
:10026000040810204080804020100804020180040F
:10027000020180402010080402010804020101026A
:100280000408102040800102040810204080000073
:100290000A0B02090C0D0E08070304010000000000
:1002A000000000000000000000000000000000004E
:1002B000000000000000000000001211100000000B
:1002C000000000000000000000000000000000002E
:1002D000000000006E0811241FBECFEFD1E2DEBF88
:1002E000CDBF00E00CBF12E0A0E0B2E0EEEAFBE11F
:1002F00000E00BBF02C007900D92A039B107D9F7FB
:1003000023E0A0E9B2E001C01D92A83EB207E1F7E8
:1003100011E0CBE6D1E000E006C021970109802F73
:10032000FE010E94B90DCA36D10780E00807A9F77F
:100330000E9416090C94D50D0C9400008F929F9288
:10034000AF92BF92FF920F931F93CF93DF93F090E2
:10035000CB032FE22F1508F44CC02091CD0308E504
:1003600012E0021B110927FD1395000F111F000F4A
:10037000111F2091CC03C8E8D0E0C21BD10927FD92
:10038000D395CC0FDD1FCC0FDD1F4E010D2E000CC1
:10039000AA08BB089801012E000C440B550B281924
:1003A00039094A095B09DC010E942F0C24EB30E07B
:1003B00040E050E00E94050C820E931EA41EB51E64
:1003C0008C169D062CF0E801801691060CF4E401D1
:1003D0002297CC0FDD1F2FB7F8948F2D90E0FC01F2
:1003E000EE0FFF1FE80FF91FE65CFC4FD283C183BD
:1003F0002FBFDF91CF911F910F91FF90BF90AF90D2
:100400009F908F900895282F30E0F901E257FD4F1B
:100410009491F901E85BFD4F44912E5F3D4FF90146
:100420002491222309F435C0992311F1915092317E
:10043000F8F4E92FF0E08827EF5DFD4F8F4F0C9423
:10044000B90D5202560233024A024E0238025902D4
:100450005F02630269026D02710277027B02380259
:100460007F0285028902809180008F7780938000CF
:10047000E22FF0E0EE0FFF1FE851FE4FA591B4917F
:100480008FB7F894EC91611148C040954E234C937E
:100490008FBF0895809180008F7DE8CF809180008C
:1004A000877FE4CF84B58F7784BDE2CF84B58F7D1D
:1004B000FBCF8091B0008F778093B000D9CF80912F
:1004C000B0008F7DF9CF809190008F77809390005E
:1004D000CFCF809190008F7DF9CF80919000877F62
:1004E000F5CF8091A0008F778093A000C1CF80913D
:1004F000A0008F7DF9CF8091A000877FF5CF8091FC
:1005000020018F7780932001B3CF809120018F7DD0
:10051000F9CF80912001877FF5CF4E2BB8CFCF93B5
:10052000DF93EC018091D6039091D703029749F4B1
:10053000C130D10509F43DC07CF560E0209709F495
:1005400039C08091D6039091D703049749F4C13004
:10055000D10509F45EC00CF039C0209709F444C0FD
:100560008091D6039091D703059709F0E7C0CA3070
:10057000D10508F0E3C0FE018827EE53FD4F8F4FF1
:100580000C94B90D21032D033E0354036F03710333
:100590007803840395039C03C230D105A9F060E081
:1005A000C330D10571F68091DA030E94030260E046
:1005B00006C061E08091DA030E94030261E080914D
:1005C000DC030E940302BDCF61E0EDCFC230D10554
:1005D00039F1C330D10509F0C3CF61E08091DA036E
:1005E0000E94030260E022C061E08091DA030E9471
:1005F000030260E08091DC030E94030261E08091CD
:10060000DE030E94030260E08091E0030E94030287
:10061000A7CF60E08091DA030E94030261E0EACF95
:1006200060E08091DA030E94030261E08091DC03C4
:100630000E94030260E08091DE030E94030261E0F9
:10064000E3CF60E08091DA030E94030261E08091D1
:10065000DC030E94030261E00BC060E08091DA03DA
:100660000E94030261E08091DC030E94030260E0CB
:100670008091DE030E94030260E010C060E0809180
:10068000DA030E94030261E08091DC030E9403020E
:1006900060E08091DE030E94030261E08091E0034C
:1006A0000E94030261E015C060E08091DA030E94BD
:1006B000030261E08091DC030E94030260E080910C
:1006C000DE030E94030261E08091E0030E940302C6
:1006D00060E08091E203DF91CF910C94030261E02E
:1006E000E4CF61E08091DA030E94030260E0E2CF90
:1006F00061E08091DA030E94030260E08091DC03F4
:100700000E94030261E0DBCF61E08091DA030E9486
:10071000030260E08091DC030E94030261E08091AB
:10072000DE030E94030260E0CFCF61E08091DA0334
:100730000E94030260E08BCF60E0F8CFDF91CF91A1
:100740000895CF93DF9390E0FC01E85BFD4F249187
:100750008E5F9D4FFC0184918823D1F090E0880F3B
:10076000991FFC01E253FE4FA591B491FC01E851A1
:10077000FE4FC591D49161110EC09FB7F8948C9132
:10078000E22FE0958E238C932881E223E8839FBF9C
:10079000DF91CF9108958FB7F894EC91E22BEC9311
:1007A0008FBFF6CF3FB7F8948091990290919A024B
:1007B000A0919B02B0919C0226B5A89B05C02F3F3B
:1007C00019F00196A11DB11D3FBFBA2FA92F982F77
:1007D0008827BC01CD01620F711D811D911D42E072
:1007E000660F771F881F991F4A95D1F708954F927A
:1007F0005F926F927F928F929F92AF92BF92EF9291
:10080000FF920F931F93CF93DF93EC0181E090E071
:100810009093CF038093CE0304E010E08AE0E82EAB
:10082000F12C209709F467C00E94D2038090E40362
:100830009090E503A090E603B090E7032B013C0104
:10084000481859086A087B088090D0039090D1031B
:10085000A090D203B090D303481459046A047B04D7
:1008600000F36093E4037093E5038093E6039093B1
:10087000E7038091D8039091D9032091CE03309162
:10088000CF032130310519F501969093D903809358
:10089000D8032091D4033091D5038217930721F414
:1008A0001092D9031092D80321978091D803909188
:1008B000D9032091D6033091D703B70125303105F4
:1008C00009F0B8010E94A50D0E948F02AACF892BC2
:1008D00041F48091D4039091D5039093D9038093F0
:1008E000D8038091D8039091D90301979093D903AD
:1008F0008093D803D9CFDF91CF911F910F91FF90B3
:10090000EF90BF90AF909F908F907F906F905F908F
:100910004F9008958F929F92AF92BF92CF92DF92A5
:10092000EF92FF924B015C010E94D2036B017C01AC
:100930000E94D2036C197D098E099F09683E73409D
:1009400081059105A8F321E0821A9108A108B10858
:1009500088EEC80E83E0D81EE11CF11C81149104BE
:10096000A104B10429F7FF90EF90DF90CF90BF90E2
:10097000AF909F908F900895AF92BF92CF92DF92E9
:10098000EF92FF920F931F93CF93DF936C017B0144
:100990008B01040F151FEB015E01AE18BF08C017D5
:1009A000D10759F06991D601ED91FC910190F08148
:1009B000E02DC6011995892B79F7C501DF91CF91FB
:1009C0001F910F91FF90EF90DF90CF90BF90AF906D
:1009D0000895FC01538D448D252F30E0842F90E045
:1009E000821B930B541710F0CF960895019708952A
:1009F000FC01918D828D981761F0A28DAE0FBF2FF3
:100A0000B11D5D968C91928D9F5F9F73928F90E048
:100A100008958FEF9FEF0895FC01918D828D9817B7
:100A200031F0828DE80FF11D858D90E008958FEFF4
:100A30009FEF0895FC01918D228D892F90E0805CBD
:100A40009F4F821B91098F73992708958DE992E03A
:100A50000E941A0521E0892B09F420E0822F0895D5
:100A6000FC01A48DA80FB92FB11DA35ABF4F2C9123
:100A7000848D90E001968F739927848FA689B7891A
:100A80002C93A089B1898C91837080648C93938D11
:100A9000848D981306C00288F389E02D80818F7DB4
:100AA00080830895EF92FF920F931F93CF93DF936C
:100AB000EC0181E0888F9B8D8C8D98131AC0E8899A
:100AC000F989808185FF15C09FB7F894EE89FF8969
:100AD0006083E889F98980818370806480839FBF07
:100AE00081E090E0DF91CF911F910F91FF90EF9007
:100AF0000895F62E0B8D10E00F5F1F4F0F73112717
:100B0000E02E8C8D8E110CC00FB607FCFACFE88951
:100B1000F989808185FFF5CFCE010E943005F1CFA4
:100B2000EB8DEC0FFD2FF11DE35AFF4FF0829FB7C5
:100B3000F8940B8FEA89FB8980818062CFCFCF93B5
:100B4000DF93EC01888D8823B9F0AA89BB89E889F5
:100B5000F9898C9185FD03C0808186FD0DC00FB69B
:100B600007FCF7CF8C9185FFF2CF808185FFEDCF19
:100B7000CE010E943005E9CFDF91CF91089580E04A
:100B800090E0892B29F00E94260581110E94000027
:100B900080E090E0892B49F080E090E0892B29F0FB
:100BA0000E94000081110E94000080E090E0892BEB
:100BB00049F080E090E0892B29F00E94000081112B
:100BC0000E94000080E090E0892B49F080E090E0F6
:100BD000892B29F00E94000081110C9400000895D7
:100BE000AF92BF92CF92DF92EF92FF920F931F933B
:100BF000CF93DF936B017A01EC01C057DD4F288161
:100C00003CE0389F8001399F100D1124A090CA0349
:100C1000B12C27FF1FC0FB011182108288818F5FDA
:100C2000888388819801280F311D87FD3A95F60148
:100C30002A153B051CF488818C30C4F18081918198
:100C4000049680349C4908F473C0F6018081918138
:100C5000049670C088819801280F311D87FD3A9550
:100C60002A153B05DCF68881A801480F511D87FD38
:100C70005A95FA01EE0FFF1FE40FF51FE65CFC4FDB
:100C8000808186FFCBCF8881F801E80FF11D87FDB9
:100C9000FA95CF01EE0FFF1FE80FF91FE65CFC4F3E
:100CA000808160E08F730E940302B8CF80819181C0
:100CB0002881A801420F511D27FD5A959A01FA017A
:100CC000EE0FFF1FE20FF31FE65CFC4F2181328124
:100CD000820F931FF7019183808388819801280FE9
:100CE000311D87FD3A95F901EE0FFF1FE20FF31F4B
:100CF000E65CFC4F808186FF22C08881080F111DB1
:100D000087FD1A95F801EE0FFF1FE00FF11FE65C5B
:100D1000FC4F808161E08F73DF91CF911F910F9124
:100D2000FF90EF90DF90CF90BF90AF900C940302B4
:100D300080E49CE9F701918380838FEF8883DF91C2
:100D4000CF911F910F91FF90EF90DF90CF90BF90C8
:100D5000AF900895CF93DF93FC0101900020E9F755
:100D60003197AF01481B590BBC018DE992E00E94FD
:100D7000BC04EC0142E050E062E172E08DE992E0F7
:100D80000E94BC048C0F9D1FDF91CF9108951F928C
:100D90000F920FB60F9211242F933F938F939F932F
:100DA000AF93BF938091950290919602A091970284
:100DB000B09198023091940223E0230F2D3758F51B
:100DC0000196A11DB11D20939402809395029093EA
:100DD0009602A0939702B093980280919902909105
:100DE0009A02A0919B02B0919C020196A11DB11D97
:100DF0008093990290939A02A0939B02B0939C02D5
:100E0000BF91AF919F918F913F912F910F900FBE06
:100E10000F901F90189526E8230F0296A11DB11D73
:100E2000D2CF1F920F920FB60F9211240BB60F92D2
:100E30002F933F934F935F936F937F938F939F93E2
:100E4000AF93BF93EF93FF938DE992E00E9430053B
:100E5000FF91EF91BF91AF919F918F917F916F9192
:100E60005F914F913F912F910F900BBE0F900FBE4E
:100E70000F901F9018951F920F920FB60F9211248A
:100E80000BB60F922F938F939F93EF93FF93E09165
:100E9000AD02F091AE028081E091B302F091B40214
:100EA00082FD1DC090818091B6028F5F8F7320916B
:100EB000B702821741F0E091B602F0E0E356FD4F31
:100EC000958F8093B602FF91EF919F918F912F9113
:100ED0000F900BBE0F900FBE0F901F901895808142
:100EE000F2CF1F920F920FB60F9211240BB60F92F2
:100EF0002F933F934F935F936F937F938F939F9322
:100F0000AF93BF93EF93FF9348E251E064E271E047
:100F100090E080E00E94F005FF91EF91BF91AF91CA
:100F20009F918F917F916F915F914F913F912F9101
:100F30000F900BBE0F900FBE0F901F9018951F9231
:100F40000F920FB60F9211240BB60F922F933F936F
:100F50004F935F936F937F938F939F93AF93BF93C1
:100F6000EF93FF9348EA50E064EA70E083E090E09A
:100F70000E94F005FF91EF91BF91AF919F918F91EA
:100F80007F916F915F914F913F912F910F900BBE89
:100F90000F900FBE0F901F9018951F920F920FB6D3
:100FA0000F9211240BB60F922F933F934F935F93A1
:100FB0006F937F938F939F93AF93BF93EF93FF9321
:100FC00048E950E064E970E082E090E00E94F005BA
:100FD000FF91EF91BF91AF919F918F917F916F9111
:100FE0005F914F913F912F910F900BBE0F900FBECD
:100FF0000F901F9018951F920F920FB60F92112409
:101000000BB60F922F933F934F935F936F937F9302
:101010008F939F93AF93BF93EF93FF9348E850E074
:1010200064E870E081E090E00E94F005FF91EF91AC
:10103000BF91AF919F918F917F916F915F914F91F0
:101040003F912F910F900BBE0F900FBE0F901F90EE
:101050001895CF92DF92EF92FF920F931F93E82F94
:10106000F92F05C0015011092109310961F1908161
:1010700096239417B9F305C00150110921093109CC
:1010800011F1908196239413F7CFC12CD12CE12C30
:10109000F12C0AC08FEFC81AD80AE80AF80A0C1512
:1010A0001D052E053F0579F080818623841791F375
:1010B0006C2D7D2D8E2D9F2D1F910F91FF90EF9008
:1010C000DF90CF90089560E070E080E090E01F91A5
:1010D0000F91FF90EF90DF90CF9008951092A002B3
:1010E00010929F0288EE93E0A0E0B0E08093A1020E
:1010F0009093A202A093A302B093A40284E092E092
:1011000090939E0280939D0285EC90E09093AA02BA
:101110008093A90284EC90E09093AC028093AB02A0
:1011200080EC90E09093AE028093AD0281EC90E071
:101130009093B0028093AF0282EC90E09093B20261
:101140008093B10286EC90E09093B4028093B30256
:101150001092B6021092B7021092B8021092B90221
:101160001092D9031092D8031092CF031092CE039D
:101170001092E4031092E5031092E6031092E70345
:1011800088EC90E09093D5038093D40386E190E0BF
:101190009093DB038093DA038EE090E09093DD037D
:1011A0008093DC0387E190E09093DF038093DE037C
:1011B00089E190E09093E1038093E00361E086E1B0
:1011C0000E94A10361E08091DC030E94A10361E021
:1011D0008091DE030E94A10361E08091E0030E9400
:1011E000A1031092E3031092E20384E090E0909355
:1011F000D7038093D6038091CA03803398F491E09B
:10120000980F9093CA038093CB0390E0FC01EE0FFC
:10121000FF1FE80FF91FE65CFC4F88EB9BE0928311
:10122000818308958FEF8093CB030895789484B5DC
:10123000826084BD84B5816084BD85B5826085BDD2
:1012400085B5816085BD80916E00816080936E0060
:101250001092810080918100826080938100809152
:101260008100816080938100809180008160809303
:1012700080008091B10084608093B1008091B000C3
:1012800081608093B0008091910082608093910092
:1012900080919100816080939100809190008160A5
:1012A000809390008091A10082608093A100809142
:1012B000A10081608093A1008091A0008160809353
:1012C000A000809121018260809321018091210101
:1012D00081608093210180912001816080932001B1
:1012E00080917A00846080937A0080917A00826095
:1012F00080937A0080917A00816080937A00809157
:101300007A00806880937A001092C100E091AD026B
:10131000F091AE0282E08083E091A902F091AA02EE
:101320001082E091AB02F091AC0280E180831092D8
:10133000B502E091B102F091B20286E08083E091C3
:10134000AF02F091B002808180618083E091AF02B2
:10135000F091B002808188608083E091AF02F091CB
:10136000B002808180688083E091AF02F091B0028A
:1013700080818F7D80832091D4033091D503032E0B
:10138000000C440B550B60E077E883E993E00E9482
:10139000050CCA01B9012CE330E040E050E00E94A6
:1013A000050C2093D0033093D1034093D203509384
:1013B000D3038091CB03803308F052C061E08CE00E
:1013C0000E94A1038091CB03282F30E0F901EE0F9A
:1013D000FF1FE20FF31FE65CFC4F9081907C9C6046
:1013E00090831092CC031092CD032CE0622F0E94C8
:1013F000990D829FB001112430E020E0AB01420F33
:10140000531FFA01EE0FFF1FE40FF51FE65CFC4FC0
:10141000908196FD17C02F5F3F4F2C30310571F73B
:10142000813009F0DCC01092800082E0809381005E
:101430001092850010928400B19A80916F008260B2
:1014400080936F00E091CB038E2F90E0FC01EE0FB4
:10145000FF1FE80FF91FE65CFC4F808180648083EA
:1014600090E080E00E949E0161E084E00E94A10380
:1014700061E082E00E94A10361E08FE00E94A1038D
:1014800061E08CE10E94A10361E08BE10E94A10375
:1014900061E08AE10E94A10360E081E20E94A10371
:1014A00085E192E00E94AA0693E0E92EF12C23E266
:1014B000C22ED12C39E6632E32E0732E43E2A42EE5
:1014C00042E0B42E5DE9852E52E0952EC8ECD0E0C6
:1014D00068EC562E60E08AE10E940302C701019782
:1014E000F1F761E08AE10E940302C6010197F1F77A
:1014F00060E08AE10E940302F3016491F5018491A6
:10150000E82FF0E0EE0FFF1FEC54FE4F8591949111
:1015100000E412E42FE030E0462F0E942908611514
:1015200071058105910529F06F5F7F4F8F4F9F4FA8
:101530009F700E94A00C26E933E44BE05DE30E941B
:10154000040D20E030E040E05FE30E94040D0E94C3
:10155000680C6B3071050CF0BEC083E292E00E9413
:10156000AA068DE992E00E941A05892BD1F38DE934
:1015700092E00E94F804823309F45DC0833309F4D9
:1015800061C0813341F48DE392E00E94AA068AE5AE
:1015900090E00E94F70361E08FE00E94A103F40154
:1015A0008491EFEFE80FE23108F02AC1F0E08827DC
:1015B000E352F54F8F4F0C94B90D290B6E0B730B43
:1015C0007D0B870B000C910B990BA10BAB0BB50B93
:1015D000BF0BCE0BD80B000CE20BEC0BF60B8230E2
:1015E00061F41092900080939100109295001092F7
:1015F000940088BB8093710025CF833069F41092EA
:10160000A00082E08093A1001092A5001092A40097
:1016100089BB8093720016CF811114CF10922001E4
:1016200082E08093210110922501109224018ABB4F
:101630008093730007CF8DE492E00E94AA0684EBAA
:1016400090E0A7CF8DE592E00E94AA068EE091E09F
:10165000A0CF84B5806884BD57BC61E084E00E945F
:10166000030260E082E00E94030264EF71E080E028
:1016700090E00E948A0460E084E00E9403028DE60C
:1016800092E00E94AA0661E08CE10E94030261E000
:101690008BE10E9403028AE590E00E949E0160EDCA
:1016A00077E080E090E00E948A0490E080E00E9471
:1016B0009E0160E08CE10E94030260E08BE10E94E9
:1016C00003028DE792E00E94AA0668EE73E080E0D4
:1016D00090E00E948A040E94BF05FCCE84B580621F
:1016E00084BD58BCBACF8091800080688093800010
:1016F000D0938900C0938800B0CF80918000806231
:1017000080938000D0938B00C0938A00A6CF8091F5
:101710008000886080938000D0938D00C0938C00FF
:101720009CCF8091B00080688093B0005092B3004D
:1017300094CF8091B00080628093B0005092B4004A
:101740008CCF80919000806880939000D093990016
:10175000C093980082CF8091900080628093900027
:10176000D0939B00C0939A0078CF809190008860BE
:1017700080939000D0939D00C0939C006ECF809189
:10178000A00080688093A0008091A0008F7B809350
:10179000A000D093A900C093A8005FCF8091A000C3
:1017A00080628093A000D093AB00C093AA0055CF75
:1017B0008091A00088608093A000D093AD00C0937A
:1017C000AC004BCF80912001806880932001D093A2
:1017D0002901C093280141CF80912001806280932C
:1017E0002001D0932B01C0932A0137CF8091200193
:1017F000886080932001D0932D01C0932C012DCFC0
:1018000061E08FE00E94030228CF052E97FB1EF4B3
:1018100000940E941C0C57FD07D00E94370C07FC57
:1018200003D04EF40C941C0C5095409530952195A6
:101830003F4F4F4F5F4F08959095809570956195FC
:101840007F4F8F4F9F4F08950E94590CA59F900D79
:10185000B49F900DA49F800D911D11240895B7FF92
:101860000C94240C0E94240C821B930B0895A1E27B
:101870001A2EAA1BBB1BFD010DC0AA1FBB1FEE1F0A
:10188000FF1FA217B307E407F50720F0A21BB30B55
:10189000E40BF50B661F771F881F991F1A9469F7D1
:1018A00060957095809590959B01AC01BD01CF012D
:1018B0000895A29FB001B39FC001A39F700D811D29
:1018C0001124911DB29F700D811D1124911D089549
:1018D0000E946F0C6894B1110C94FE0C08950E9444
:1018E000E30C88F09F5798F0B92F9927B751B0F0C3
:1018F000E1F0660F771F881F991F1AF0BA95C9F794
:1019000014C0B13091F00E94FD0CB1E008950C9428
:10191000FD0C672F782F8827B85F39F0B93FCCF3DB
:10192000869577956795B395D9F73EF49095809510
:10193000709561957F4F8F4F9F4F0895E89409C030
:1019400097FB3EF490958095709561957F4F8F4FF2
:101950009F4F9923A9F0F92F96E9BB279395F69508
:10196000879577956795B795F111F8CFFAF4BB0F86
:1019700011F460FF1BC06F5F7F4F8F4F9F4F16C0EA
:10198000882311F096E911C0772321F09EE8872F74
:10199000762F05C0662371F096E8862F70E060E030
:1019A0002AF09A95660F771F881FDAF7880F9695A9
:1019B000879597F9089557FD9058440F551F59F092
:1019C0005F3F71F04795880F97FB991F61F09F3F2C
:1019D00079F087950895121613061406551FF2CF55
:1019E0004695F1DF08C0161617061806991FF1CFA5
:1019F00086957105610508940895E894BB276627CC
:101A00007727CB0197F908950E94170D0C94880D44
:101A10000E947A0D38F00E94810D20F0952311F07C
:101A20000C94710D0C94770D11240C94FE0C0E94F3
:101A3000DB0C70F3959FC1F3950F50E0551F629F2B
:101A4000F001729FBB27F00DB11D639FAA27F00D17
:101A5000B11DAA1F649F6627B00DA11D661F829F3E
:101A60002227B00DA11D621F739FB00DA11D621F23
:101A7000839FA00D611D221F749F3327A00D611D40
:101A8000231F849F600D211D822F762F6A2F112422
:101A90009F5750409AF0F1F088234AF0EE0FFF1F55
:101AA000BB1F661F771F881F91505040A9F79E3FAC
:101AB000510580F00C94710D0C94FE0C5F3FE4F323
:101AC000983ED4F3869577956795B795F795E79502
:101AD0009F5FC1F7FE2B880F911D9695879597F90B
:101AE000089597F99F6780E870E060E008959FEFA0
:101AF00080EC089500240A941616170618060906A5
:101B0000089500240A941216130614060506089573
:101B1000092E0394000C11F4882352F0BB0F40F4FB
:101B2000BF2B11F460FF04C06F5F7F4F8F4F9F4F3B
:101B30000895991B79E004C0991F961708F0961B29
:101B4000881F7A95C9F78095089597FB072E16F49C
:101B5000009407D077FD09D00E94C10D07FC05D085
:101B60003EF4909581959F4F0895709561957F4FB4
:101B70000895EE0FFF1F881F8BBF0790F691E02D91
:101B80001994AA1BBB1B51E107C0AA1FBB1FA617B4
:101B9000B70710F0A61BB70B881F991F5A95A9F716
:0E1BA00080959095BC01CD010895F894FFCF7B
:101BAE00000000005205BC04E9049F051A05F80464
:101BBE000C050D0A0053797374656D2052656164CE
:101BCE0079210043686F6F73652043616E64793AC3
:101BDE0020312C20322C206F7220333A0043616E5C
:101BEE006479203120436F6D696E67210043616E09
:101BFE006479203220436F6D696E67210043616EF8
:101C0E006479203320436F6D696E6721004F7065D4
:101C1E006E696E6720476174652E2E2E00456E6AC2
:101C2E006F7920796F75722063616E64792100007F
:00000001FF
